{
  "contractName": "Token",
  "abi": [
    {
      "inputs": [
        {
          "internalType": "string",
          "name": "name",
          "type": "string"
        },
        {
          "internalType": "string",
          "name": "symbol",
          "type": "string"
        }
      ],
      "stateMutability": "nonpayable",
      "type": "constructor"
    },
    {
      "anonymous": false,
      "inputs": [
        {
          "indexed": true,
          "internalType": "address",
          "name": "owner",
          "type": "address"
        },
        {
          "indexed": true,
          "internalType": "address",
          "name": "approved",
          "type": "address"
        },
        {
          "indexed": true,
          "internalType": "uint256",
          "name": "tokenId",
          "type": "uint256"
        }
      ],
      "name": "Approval",
      "type": "event"
    },
    {
      "anonymous": false,
      "inputs": [
        {
          "indexed": true,
          "internalType": "address",
          "name": "owner",
          "type": "address"
        },
        {
          "indexed": true,
          "internalType": "address",
          "name": "operator",
          "type": "address"
        },
        {
          "indexed": false,
          "internalType": "bool",
          "name": "approved",
          "type": "bool"
        }
      ],
      "name": "ApprovalForAll",
      "type": "event"
    },
    {
      "anonymous": false,
      "inputs": [
        {
          "indexed": true,
          "internalType": "address",
          "name": "previousOwner",
          "type": "address"
        },
        {
          "indexed": true,
          "internalType": "address",
          "name": "newOwner",
          "type": "address"
        }
      ],
      "name": "OwnershipTransferred",
      "type": "event"
    },
    {
      "anonymous": false,
      "inputs": [
        {
          "indexed": true,
          "internalType": "address",
          "name": "from",
          "type": "address"
        },
        {
          "indexed": true,
          "internalType": "address",
          "name": "to",
          "type": "address"
        },
        {
          "indexed": true,
          "internalType": "uint256",
          "name": "tokenId",
          "type": "uint256"
        }
      ],
      "name": "Transfer",
      "type": "event"
    },
    {
      "inputs": [
        {
          "internalType": "address",
          "name": "to",
          "type": "address"
        },
        {
          "internalType": "uint256",
          "name": "tokenId",
          "type": "uint256"
        }
      ],
      "name": "approve",
      "outputs": [],
      "stateMutability": "nonpayable",
      "type": "function"
    },
    {
      "inputs": [
        {
          "internalType": "address",
          "name": "owner",
          "type": "address"
        }
      ],
      "name": "balanceOf",
      "outputs": [
        {
          "internalType": "uint256",
          "name": "",
          "type": "uint256"
        }
      ],
      "stateMutability": "view",
      "type": "function"
    },
    {
      "inputs": [
        {
          "internalType": "uint256",
          "name": "tokenId",
          "type": "uint256"
        }
      ],
      "name": "getApproved",
      "outputs": [
        {
          "internalType": "address",
          "name": "",
          "type": "address"
        }
      ],
      "stateMutability": "view",
      "type": "function"
    },
    {
      "inputs": [
        {
          "internalType": "address",
          "name": "owner",
          "type": "address"
        },
        {
          "internalType": "address",
          "name": "operator",
          "type": "address"
        }
      ],
      "name": "isApprovedForAll",
      "outputs": [
        {
          "internalType": "bool",
          "name": "",
          "type": "bool"
        }
      ],
      "stateMutability": "view",
      "type": "function"
    },
    {
      "inputs": [],
      "name": "name",
      "outputs": [
        {
          "internalType": "string",
          "name": "",
          "type": "string"
        }
      ],
      "stateMutability": "view",
      "type": "function"
    },
    {
      "inputs": [],
      "name": "owner",
      "outputs": [
        {
          "internalType": "address",
          "name": "",
          "type": "address"
        }
      ],
      "stateMutability": "view",
      "type": "function"
    },
    {
      "inputs": [
        {
          "internalType": "uint256",
          "name": "tokenId",
          "type": "uint256"
        }
      ],
      "name": "ownerOf",
      "outputs": [
        {
          "internalType": "address",
          "name": "",
          "type": "address"
        }
      ],
      "stateMutability": "view",
      "type": "function"
    },
    {
      "inputs": [],
      "name": "renounceOwnership",
      "outputs": [],
      "stateMutability": "nonpayable",
      "type": "function"
    },
    {
      "inputs": [
        {
          "internalType": "address",
          "name": "from",
          "type": "address"
        },
        {
          "internalType": "address",
          "name": "to",
          "type": "address"
        },
        {
          "internalType": "uint256",
          "name": "tokenId",
          "type": "uint256"
        }
      ],
      "name": "safeTransferFrom",
      "outputs": [],
      "stateMutability": "nonpayable",
      "type": "function"
    },
    {
      "inputs": [
        {
          "internalType": "address",
          "name": "from",
          "type": "address"
        },
        {
          "internalType": "address",
          "name": "to",
          "type": "address"
        },
        {
          "internalType": "uint256",
          "name": "tokenId",
          "type": "uint256"
        },
        {
          "internalType": "bytes",
          "name": "_data",
          "type": "bytes"
        }
      ],
      "name": "safeTransferFrom",
      "outputs": [],
      "stateMutability": "nonpayable",
      "type": "function"
    },
    {
      "inputs": [
        {
          "internalType": "address",
          "name": "operator",
          "type": "address"
        },
        {
          "internalType": "bool",
          "name": "approved",
          "type": "bool"
        }
      ],
      "name": "setApprovalForAll",
      "outputs": [],
      "stateMutability": "nonpayable",
      "type": "function"
    },
    {
      "inputs": [
        {
          "internalType": "bytes4",
          "name": "interfaceId",
          "type": "bytes4"
        }
      ],
      "name": "supportsInterface",
      "outputs": [
        {
          "internalType": "bool",
          "name": "",
          "type": "bool"
        }
      ],
      "stateMutability": "view",
      "type": "function"
    },
    {
      "inputs": [],
      "name": "symbol",
      "outputs": [
        {
          "internalType": "string",
          "name": "",
          "type": "string"
        }
      ],
      "stateMutability": "view",
      "type": "function"
    },
    {
      "inputs": [
        {
          "internalType": "uint256",
          "name": "tokenId",
          "type": "uint256"
        }
      ],
      "name": "tokenURI",
      "outputs": [
        {
          "internalType": "string",
          "name": "",
          "type": "string"
        }
      ],
      "stateMutability": "view",
      "type": "function"
    },
    {
      "inputs": [
        {
          "internalType": "address",
          "name": "from",
          "type": "address"
        },
        {
          "internalType": "address",
          "name": "to",
          "type": "address"
        },
        {
          "internalType": "uint256",
          "name": "tokenId",
          "type": "uint256"
        }
      ],
      "name": "transferFrom",
      "outputs": [],
      "stateMutability": "nonpayable",
      "type": "function"
    },
    {
      "inputs": [
        {
          "internalType": "address",
          "name": "newOwner",
          "type": "address"
        }
      ],
      "name": "transferOwnership",
      "outputs": [],
      "stateMutability": "nonpayable",
      "type": "function"
    },
    {
      "inputs": [
        {
          "internalType": "uint8",
          "name": "domage",
          "type": "uint8"
        },
        {
          "internalType": "uint8",
          "name": "magie",
          "type": "uint8"
        },
        {
          "internalType": "uint8",
          "name": "endurance",
          "type": "uint8"
        }
      ],
      "name": "create_jeton",
      "outputs": [],
      "stateMutability": "nonpayable",
      "type": "function"
    },
    {
      "inputs": [
        {
          "internalType": "uint256",
          "name": "tokenId",
          "type": "uint256"
        }
      ],
      "name": "repas",
      "outputs": [],
      "stateMutability": "nonpayable",
      "type": "function"
    }
  ],
  "bytecode": "0x608060405260006007553480156200001657600080fd5b50604051620032253803806200322583398181016040528101906200003c9190620003b5565b818181600090805190602001906200005692919062000168565b5080600190805190602001906200006f92919062000168565b50505062000092620000866200009a60201b60201c565b620000a260201b60201c565b50506200049e565b600033905090565b6000600660009054906101000a900473ffffffffffffffffffffffffffffffffffffffff16905081600660006101000a81548173ffffffffffffffffffffffffffffffffffffffff021916908373ffffffffffffffffffffffffffffffffffffffff1602179055508173ffffffffffffffffffffffffffffffffffffffff168173ffffffffffffffffffffffffffffffffffffffff167f8be0079c531659141344cd1fd0a4f28419497f9722a3daafe3b4186f6b6457e060405160405180910390a35050565b828054620001769062000469565b90600052602060002090601f0160209004810192826200019a5760008555620001e6565b82601f10620001b557805160ff1916838001178555620001e6565b82800160010185558215620001e6579182015b82811115620001e5578251825591602001919060010190620001c8565b5b509050620001f59190620001f9565b5090565b5b8082111562000214576000816000905550600101620001fa565b5090565b6000604051905090565b600080fd5b600080fd5b600080fd5b600080fd5b6000601f19601f8301169050919050565b7f4e487b7100000000000000000000000000000000000000000000000000000000600052604160045260246000fd5b620002818262000236565b810181811067ffffffffffffffff82111715620002a357620002a262000247565b5b80604052505050565b6000620002b862000218565b9050620002c6828262000276565b919050565b600067ffffffffffffffff821115620002e957620002e862000247565b5b620002f48262000236565b9050602081019050919050565b60005b838110156200032157808201518184015260208101905062000304565b8381111562000331576000848401525b50505050565b60006200034e6200034884620002cb565b620002ac565b9050828152602081018484840111156200036d576200036c62000231565b5b6200037a84828562000301565b509392505050565b600082601f8301126200039a57620003996200022c565b5b8151620003ac84826020860162000337565b91505092915050565b60008060408385031215620003cf57620003ce62000222565b5b600083015167ffffffffffffffff811115620003f057620003ef62000227565b5b620003fe8582860162000382565b925050602083015167ffffffffffffffff81111562000422576200042162000227565b5b620004308582860162000382565b9150509250929050565b7f4e487b7100000000000000000000000000000000000000000000000000000000600052602260045260246000fd5b600060028204905060018216806200048257607f821691505b6020821081036200049857620004976200043a565b5b50919050565b612d7780620004ae6000396000f3fe608060405234801561001057600080fd5b50600436106101165760003560e01c806370a08231116100a2578063a22cb46511610071578063a22cb465146102cb578063b88d4fde146102e7578063c87b56dd14610303578063e985e9c514610333578063f2fde38b1461036357610116565b806370a0823114610255578063715018a6146102855780638da5cb5b1461028f57806395d89b41146102ad57610116565b80631cd9e520116100e95780631cd9e520146101b557806323b872dd146101d157806329b54bb0146101ed57806342842e0e146102095780636352211e1461022557610116565b806301ffc9a71461011b57806306fdde031461014b578063081812fc14610169578063095ea7b314610199575b600080fd5b61013560048036038101906101309190611b72565b61037f565b6040516101429190611bba565b60405180910390f35b610153610461565b6040516101609190611c6e565b60405180910390f35b610183600480360381019061017e9190611cc6565b6104f3565b6040516101909190611d34565b60405180910390f35b6101b360048036038101906101ae9190611d7b565b610578565b005b6101cf60048036038101906101ca9190611df4565b61068f565b005b6101eb60048036038101906101e69190611e47565b6107cc565b005b61020760048036038101906102029190611cc6565b61082c565b005b610223600480360381019061021e9190611e47565b610871565b005b61023f600480360381019061023a9190611cc6565b610891565b60405161024c9190611d34565b60405180910390f35b61026f600480360381019061026a9190611e9a565b610942565b60405161027c9190611ed6565b60405180910390f35b61028d6109f9565b005b610297610a81565b6040516102a49190611d34565b60405180910390f35b6102b5610aab565b6040516102c29190611c6e565b60405180910390f35b6102e560048036038101906102e09190611f1d565b610b3d565b005b61030160048036038101906102fc9190612092565b610b53565b005b61031d60048036038101906103189190611cc6565b610bb5565b60405161032a9190611c6e565b60405180910390f35b61034d60048036038101906103489190612115565b610c5c565b60405161035a9190611bba565b60405180910390f35b61037d60048036038101906103789190611e9a565b610cf0565b005b60007f80ac58cd000000000000000000000000000000000000000000000000000000007bffffffffffffffffffffffffffffffffffffffffffffffffffffffff1916827bffffffffffffffffffffffffffffffffffffffffffffffffffffffff1916148061044a57507f5b5e139f000000000000000000000000000000000000000000000000000000007bffffffffffffffffffffffffffffffffffffffffffffffffffffffff1916827bffffffffffffffffffffffffffffffffffffffffffffffffffffffff1916145b8061045a575061045982610de7565b5b9050919050565b60606000805461047090612184565b80601f016020809104026020016040519081016040528092919081815260200182805461049c90612184565b80156104e95780601f106104be576101008083540402835291602001916104e9565b820191906000526020600020905b8154815290600101906020018083116104cc57829003601f168201915b5050505050905090565b60006104fe82610e51565b61053d576040517f08c379a000000000000000000000000000000000000000000000000000000000815260040161053490612227565b60405180910390fd5b6004600083815260200190815260200160002060009054906101000a900473ffffffffffffffffffffffffffffffffffffffff169050919050565b600061058382610891565b90508073ffffffffffffffffffffffffffffffffffffffff168373ffffffffffffffffffffffffffffffffffffffff16036105f3576040517f08c379a00000000000000000000000000000000000000000000000000000000081526004016105ea906122b9565b60405180910390fd5b8073ffffffffffffffffffffffffffffffffffffffff16610612610ebd565b73ffffffffffffffffffffffffffffffffffffffff16148061064157506106408161063b610ebd565b610c5c565b5b610680576040517f08c379a00000000000000000000000000000000000000000000000000000000081526004016106779061234b565b60405180910390fd5b61068a8383610ec5565b505050565b610697610ebd565b73ffffffffffffffffffffffffffffffffffffffff166106b5610a81565b73ffffffffffffffffffffffffffffffffffffffff161461070b576040517f08c379a0000000000000000000000000000000000000000000000000000000008152600401610702906123b7565b60405180910390fd5b60405180608001604052808460ff1681526020018360ff1681526020014281526020018260ff1681525060086000600754815260200190815260200160002060008201518160000160006101000a81548160ff021916908360ff16021790555060208201518160000160016101000a81548160ff021916908360ff16021790555060408201518160010155606082015181600201559050506107af33600754610f7e565b600760008154809291906107c290612406565b9190505550505050565b6107dd6107d7610ebd565b82610f9c565b61081c576040517f08c379a0000000000000000000000000000000000000000000000000000000008152600401610813906124c0565b60405180910390fd5b61082783838361107a565b505050565b60006008600060075481526020019081526020016000209050428160020154826001015461085a91906124e0565b1161086457600080fd5b4281600101819055505050565b61088c83838360405180602001604052806000815250610b53565b505050565b6000806002600084815260200190815260200160002060009054906101000a900473ffffffffffffffffffffffffffffffffffffffff169050600073ffffffffffffffffffffffffffffffffffffffff168173ffffffffffffffffffffffffffffffffffffffff1603610939576040517f08c379a0000000000000000000000000000000000000000000000000000000008152600401610930906125a8565b60405180910390fd5b80915050919050565b60008073ffffffffffffffffffffffffffffffffffffffff168273ffffffffffffffffffffffffffffffffffffffff16036109b2576040517f08c379a00000000000000000000000000000000000000000000000000000000081526004016109a99061263a565b60405180910390fd5b600360008373ffffffffffffffffffffffffffffffffffffffff1673ffffffffffffffffffffffffffffffffffffffff168152602001908152602001600020549050919050565b610a01610ebd565b73ffffffffffffffffffffffffffffffffffffffff16610a1f610a81565b73ffffffffffffffffffffffffffffffffffffffff1614610a75576040517f08c379a0000000000000000000000000000000000000000000000000000000008152600401610a6c906123b7565b60405180910390fd5b610a7f60006112e0565b565b6000600660009054906101000a900473ffffffffffffffffffffffffffffffffffffffff16905090565b606060018054610aba90612184565b80601f0160208091040260200160405190810160405280929190818152602001828054610ae690612184565b8015610b335780601f10610b0857610100808354040283529160200191610b33565b820191906000526020600020905b815481529060010190602001808311610b1657829003601f168201915b5050505050905090565b610b4f610b48610ebd565b83836113a6565b5050565b610b64610b5e610ebd565b83610f9c565b610ba3576040517f08c379a0000000000000000000000000000000000000000000000000000000008152600401610b9a906124c0565b60405180910390fd5b610baf84848484611512565b50505050565b6060610bc082610e51565b610bff576040517f08c379a0000000000000000000000000000000000000000000000000000000008152600401610bf6906126cc565b60405180910390fd5b6000610c0961156e565b90506000815111610c295760405180602001604052806000815250610c54565b80610c3384611585565b604051602001610c44929190612728565b6040516020818303038152906040525b915050919050565b6000600560008473ffffffffffffffffffffffffffffffffffffffff1673ffffffffffffffffffffffffffffffffffffffff16815260200190815260200160002060008373ffffffffffffffffffffffffffffffffffffffff1673ffffffffffffffffffffffffffffffffffffffff16815260200190815260200160002060009054906101000a900460ff16905092915050565b610cf8610ebd565b73ffffffffffffffffffffffffffffffffffffffff16610d16610a81565b73ffffffffffffffffffffffffffffffffffffffff1614610d6c576040517f08c379a0000000000000000000000000000000000000000000000000000000008152600401610d63906123b7565b60405180910390fd5b600073ffffffffffffffffffffffffffffffffffffffff168173ffffffffffffffffffffffffffffffffffffffff1603610ddb576040517f08c379a0000000000000000000000000000000000000000000000000000000008152600401610dd2906127be565b60405180910390fd5b610de4816112e0565b50565b60007f01ffc9a7000000000000000000000000000000000000000000000000000000007bffffffffffffffffffffffffffffffffffffffffffffffffffffffff1916827bffffffffffffffffffffffffffffffffffffffffffffffffffffffff1916149050919050565b60008073ffffffffffffffffffffffffffffffffffffffff166002600084815260200190815260200160002060009054906101000a900473ffffffffffffffffffffffffffffffffffffffff1673ffffffffffffffffffffffffffffffffffffffff1614159050919050565b600033905090565b816004600083815260200190815260200160002060006101000a81548173ffffffffffffffffffffffffffffffffffffffff021916908373ffffffffffffffffffffffffffffffffffffffff160217905550808273ffffffffffffffffffffffffffffffffffffffff16610f3883610891565b73ffffffffffffffffffffffffffffffffffffffff167f8c5be1e5ebec7d5bd14f71427d1e84f3dd0314c0f7b2291e5b200ac8c7c3b92560405160405180910390a45050565b610f988282604051806020016040528060008152506116e5565b5050565b6000610fa782610e51565b610fe6576040517f08c379a0000000000000000000000000000000000000000000000000000000008152600401610fdd90612850565b60405180910390fd5b6000610ff183610891565b90508073ffffffffffffffffffffffffffffffffffffffff168473ffffffffffffffffffffffffffffffffffffffff16148061103357506110328185610c5c565b5b8061107157508373ffffffffffffffffffffffffffffffffffffffff16611059846104f3565b73ffffffffffffffffffffffffffffffffffffffff16145b91505092915050565b8273ffffffffffffffffffffffffffffffffffffffff1661109a82610891565b73ffffffffffffffffffffffffffffffffffffffff16146110f0576040517f08c379a00000000000000000000000000000000000000000000000000000000081526004016110e7906128e2565b60405180910390fd5b600073ffffffffffffffffffffffffffffffffffffffff168273ffffffffffffffffffffffffffffffffffffffff160361115f576040517f08c379a000000000000000000000000000000000000000000000000000000000815260040161115690612974565b60405180910390fd5b61116a838383611740565b611175600082610ec5565b6001600360008573ffffffffffffffffffffffffffffffffffffffff1673ffffffffffffffffffffffffffffffffffffffff16815260200190815260200160002060008282546111c59190612994565b925050819055506001600360008473ffffffffffffffffffffffffffffffffffffffff1673ffffffffffffffffffffffffffffffffffffffff168152602001908152602001600020600082825461121c91906124e0565b92505081905550816002600083815260200190815260200160002060006101000a81548173ffffffffffffffffffffffffffffffffffffffff021916908373ffffffffffffffffffffffffffffffffffffffff160217905550808273ffffffffffffffffffffffffffffffffffffffff168473ffffffffffffffffffffffffffffffffffffffff167fddf252ad1be2c89b69c2b068fc378daa952ba7f163c4a11628f55a4df523b3ef60405160405180910390a46112db83838361177e565b505050565b6000600660009054906101000a900473ffffffffffffffffffffffffffffffffffffffff16905081600660006101000a81548173ffffffffffffffffffffffffffffffffffffffff021916908373ffffffffffffffffffffffffffffffffffffffff1602179055508173ffffffffffffffffffffffffffffffffffffffff168173ffffffffffffffffffffffffffffffffffffffff167f8be0079c531659141344cd1fd0a4f28419497f9722a3daafe3b4186f6b6457e060405160405180910390a35050565b8173ffffffffffffffffffffffffffffffffffffffff168373ffffffffffffffffffffffffffffffffffffffff1603611414576040517f08c379a000000000000000000000000000000000000000000000000000000000815260040161140b90612a14565b60405180910390fd5b80600560008573ffffffffffffffffffffffffffffffffffffffff1673ffffffffffffffffffffffffffffffffffffffff16815260200190815260200160002060008473ffffffffffffffffffffffffffffffffffffffff1673ffffffffffffffffffffffffffffffffffffffff16815260200190815260200160002060006101000a81548160ff0219169083151502179055508173ffffffffffffffffffffffffffffffffffffffff168373ffffffffffffffffffffffffffffffffffffffff167f17307eab39ab6107e8899845ad3d59bd9653f200f220920489ca2b5937696c31836040516115059190611bba565b60405180910390a3505050565b61151d84848461107a565b61152984848484611783565b611568576040517f08c379a000000000000000000000000000000000000000000000000000000000815260040161155f90612aa6565b60405180910390fd5b50505050565b606060405180602001604052806000815250905090565b6060600082036115cc576040518060400160405280600181526020017f300000000000000000000000000000000000000000000000000000000000000081525090506116e0565b600082905060005b600082146115fe5780806115e790612406565b915050600a826115f79190612af5565b91506115d4565b60008167ffffffffffffffff81111561161a57611619611f67565b5b6040519080825280601f01601f19166020018201604052801561164c5781602001600182028036833780820191505090505b5090505b600085146116d9576001826116659190612994565b9150600a856116749190612b26565b603061168091906124e0565b60f81b81838151811061169657611695612b57565b5b60200101907effffffffffffffffffffffffffffffffffffffffffffffffffffffffffffff1916908160001a905350600a856116d29190612af5565b9450611650565b8093505050505b919050565b6116ef838361190a565b6116fc6000848484611783565b61173b576040517f08c379a000000000000000000000000000000000000000000000000000000000815260040161173290612aa6565b60405180910390fd5b505050565b60006008600060075481526020019081526020016000209050428160020154826001015461176e91906124e0565b1161177857600080fd5b50505050565b505050565b60006117a48473ffffffffffffffffffffffffffffffffffffffff16611ae3565b156118fd578373ffffffffffffffffffffffffffffffffffffffff1663150b7a026117cd610ebd565b8786866040518563ffffffff1660e01b81526004016117ef9493929190612bdb565b6020604051808303816000875af192505050801561182b57506040513d601f19601f820116820180604052508101906118289190612c3c565b60015b6118ad573d806000811461185b576040519150601f19603f3d011682016040523d82523d6000602084013e611860565b606091505b5060008151036118a5576040517f08c379a000000000000000000000000000000000000000000000000000000000815260040161189c90612aa6565b60405180910390fd5b805181602001fd5b63150b7a0260e01b7bffffffffffffffffffffffffffffffffffffffffffffffffffffffff1916817bffffffffffffffffffffffffffffffffffffffffffffffffffffffff191614915050611902565b600190505b949350505050565b600073ffffffffffffffffffffffffffffffffffffffff168273ffffffffffffffffffffffffffffffffffffffff1603611979576040517f08c379a000000000000000000000000000000000000000000000000000000000815260040161197090612cb5565b60405180910390fd5b61198281610e51565b156119c2576040517f08c379a00000000000000000000000000000000000000000000000000000000081526004016119b990612d21565b60405180910390fd5b6119ce60008383611740565b6001600360008473ffffffffffffffffffffffffffffffffffffffff1673ffffffffffffffffffffffffffffffffffffffff1681526020019081526020016000206000828254611a1e91906124e0565b92505081905550816002600083815260200190815260200160002060006101000a81548173ffffffffffffffffffffffffffffffffffffffff021916908373ffffffffffffffffffffffffffffffffffffffff160217905550808273ffffffffffffffffffffffffffffffffffffffff16600073ffffffffffffffffffffffffffffffffffffffff167fddf252ad1be2c89b69c2b068fc378daa952ba7f163c4a11628f55a4df523b3ef60405160405180910390a4611adf6000838361177e565b5050565b6000808273ffffffffffffffffffffffffffffffffffffffff163b119050919050565b6000604051905090565b600080fd5b600080fd5b60007fffffffff0000000000000000000000000000000000000000000000000000000082169050919050565b611b4f81611b1a565b8114611b5a57600080fd5b50565b600081359050611b6c81611b46565b92915050565b600060208284031215611b8857611b87611b10565b5b6000611b9684828501611b5d565b91505092915050565b60008115159050919050565b611bb481611b9f565b82525050565b6000602082019050611bcf6000830184611bab565b92915050565b600081519050919050565b600082825260208201905092915050565b60005b83811015611c0f578082015181840152602081019050611bf4565b83811115611c1e576000848401525b50505050565b6000601f19601f8301169050919050565b6000611c4082611bd5565b611c4a8185611be0565b9350611c5a818560208601611bf1565b611c6381611c24565b840191505092915050565b60006020820190508181036000830152611c888184611c35565b905092915050565b6000819050919050565b611ca381611c90565b8114611cae57600080fd5b50565b600081359050611cc081611c9a565b92915050565b600060208284031215611cdc57611cdb611b10565b5b6000611cea84828501611cb1565b91505092915050565b600073ffffffffffffffffffffffffffffffffffffffff82169050919050565b6000611d1e82611cf3565b9050919050565b611d2e81611d13565b82525050565b6000602082019050611d496000830184611d25565b92915050565b611d5881611d13565b8114611d6357600080fd5b50565b600081359050611d7581611d4f565b92915050565b60008060408385031215611d9257611d91611b10565b5b6000611da085828601611d66565b9250506020611db185828601611cb1565b9150509250929050565b600060ff82169050919050565b611dd181611dbb565b8114611ddc57600080fd5b50565b600081359050611dee81611dc8565b92915050565b600080600060608486031215611e0d57611e0c611b10565b5b6000611e1b86828701611ddf565b9350506020611e2c86828701611ddf565b9250506040611e3d86828701611ddf565b9150509250925092565b600080600060608486031215611e6057611e5f611b10565b5b6000611e6e86828701611d66565b9350506020611e7f86828701611d66565b9250506040611e9086828701611cb1565b9150509250925092565b600060208284031215611eb057611eaf611b10565b5b6000611ebe84828501611d66565b91505092915050565b611ed081611c90565b82525050565b6000602082019050611eeb6000830184611ec7565b92915050565b611efa81611b9f565b8114611f0557600080fd5b50565b600081359050611f1781611ef1565b92915050565b60008060408385031215611f3457611f33611b10565b5b6000611f4285828601611d66565b9250506020611f5385828601611f08565b9150509250929050565b600080fd5b600080fd5b7f4e487b7100000000000000000000000000000000000000000000000000000000600052604160045260246000fd5b611f9f82611c24565b810181811067ffffffffffffffff82111715611fbe57611fbd611f67565b5b80604052505050565b6000611fd1611b06565b9050611fdd8282611f96565b919050565b600067ffffffffffffffff821115611ffd57611ffc611f67565b5b61200682611c24565b9050602081019050919050565b82818337600083830152505050565b600061203561203084611fe2565b611fc7565b90508281526020810184848401111561205157612050611f62565b5b61205c848285612013565b509392505050565b600082601f83011261207957612078611f5d565b5b8135612089848260208601612022565b91505092915050565b600080600080608085870312156120ac576120ab611b10565b5b60006120ba87828801611d66565b94505060206120cb87828801611d66565b93505060406120dc87828801611cb1565b925050606085013567ffffffffffffffff8111156120fd576120fc611b15565b5b61210987828801612064565b91505092959194509250565b6000806040838503121561212c5761212b611b10565b5b600061213a85828601611d66565b925050602061214b85828601611d66565b9150509250929050565b7f4e487b7100000000000000000000000000000000000000000000000000000000600052602260045260246000fd5b6000600282049050600182168061219c57607f821691505b6020821081036121af576121ae612155565b5b50919050565b7f4552433732313a20617070726f76656420717565727920666f72206e6f6e657860008201527f697374656e7420746f6b656e0000000000000000000000000000000000000000602082015250565b6000612211602c83611be0565b915061221c826121b5565b604082019050919050565b6000602082019050818103600083015261224081612204565b9050919050565b7f4552433732313a20617070726f76616c20746f2063757272656e74206f776e6560008201527f7200000000000000000000000000000000000000000000000000000000000000602082015250565b60006122a3602183611be0565b91506122ae82612247565b604082019050919050565b600060208201905081810360008301526122d281612296565b9050919050565b7f4552433732313a20617070726f76652063616c6c6572206973206e6f74206f7760008201527f6e6572206e6f7220617070726f76656420666f7220616c6c0000000000000000602082015250565b6000612335603883611be0565b9150612340826122d9565b604082019050919050565b6000602082019050818103600083015261236481612328565b9050919050565b7f4f776e61626c653a2063616c6c6572206973206e6f7420746865206f776e6572600082015250565b60006123a1602083611be0565b91506123ac8261236b565b602082019050919050565b600060208201905081810360008301526123d081612394565b9050919050565b7f4e487b7100000000000000000000000000000000000000000000000000000000600052601160045260246000fd5b600061241182611c90565b91507fffffffffffffffffffffffffffffffffffffffffffffffffffffffffffffffff8203612443576124426123d7565b5b600182019050919050565b7f4552433732313a207472616e736665722063616c6c6572206973206e6f74206f60008201527f776e6572206e6f7220617070726f766564000000000000000000000000000000602082015250565b60006124aa603183611be0565b91506124b58261244e565b604082019050919050565b600060208201905081810360008301526124d98161249d565b9050919050565b60006124eb82611c90565b91506124f683611c90565b9250827fffffffffffffffffffffffffffffffffffffffffffffffffffffffffffffffff0382111561252b5761252a6123d7565b5b828201905092915050565b7f4552433732313a206f776e657220717565727920666f72206e6f6e657869737460008201527f656e7420746f6b656e0000000000000000000000000000000000000000000000602082015250565b6000612592602983611be0565b915061259d82612536565b604082019050919050565b600060208201905081810360008301526125c181612585565b9050919050565b7f4552433732313a2062616c616e636520717565727920666f7220746865207a6560008201527f726f206164647265737300000000000000000000000000000000000000000000602082015250565b6000612624602a83611be0565b915061262f826125c8565b604082019050919050565b6000602082019050818103600083015261265381612617565b9050919050565b7f4552433732314d657461646174613a2055524920717565727920666f72206e6f60008201527f6e6578697374656e7420746f6b656e0000000000000000000000000000000000602082015250565b60006126b6602f83611be0565b91506126c18261265a565b604082019050919050565b600060208201905081810360008301526126e5816126a9565b9050919050565b600081905092915050565b600061270282611bd5565b61270c81856126ec565b935061271c818560208601611bf1565b80840191505092915050565b600061273482856126f7565b915061274082846126f7565b91508190509392505050565b7f4f776e61626c653a206e6577206f776e657220697320746865207a65726f206160008201527f6464726573730000000000000000000000000000000000000000000000000000602082015250565b60006127a8602683611be0565b91506127b38261274c565b604082019050919050565b600060208201905081810360008301526127d78161279b565b9050919050565b7f4552433732313a206f70657261746f7220717565727920666f72206e6f6e657860008201527f697374656e7420746f6b656e0000000000000000000000000000000000000000602082015250565b600061283a602c83611be0565b9150612845826127de565b604082019050919050565b600060208201905081810360008301526128698161282d565b9050919050565b7f4552433732313a207472616e736665722066726f6d20696e636f72726563742060008201527f6f776e6572000000000000000000000000000000000000000000000000000000602082015250565b60006128cc602583611be0565b91506128d782612870565b604082019050919050565b600060208201905081810360008301526128fb816128bf565b9050919050565b7f4552433732313a207472616e7366657220746f20746865207a65726f2061646460008201527f7265737300000000000000000000000000000000000000000000000000000000602082015250565b600061295e602483611be0565b915061296982612902565b604082019050919050565b6000602082019050818103600083015261298d81612951565b9050919050565b600061299f82611c90565b91506129aa83611c90565b9250828210156129bd576129bc6123d7565b5b828203905092915050565b7f4552433732313a20617070726f766520746f2063616c6c657200000000000000600082015250565b60006129fe601983611be0565b9150612a09826129c8565b602082019050919050565b60006020820190508181036000830152612a2d816129f1565b9050919050565b7f4552433732313a207472616e7366657220746f206e6f6e20455243373231526560008201527f63656976657220696d706c656d656e7465720000000000000000000000000000602082015250565b6000612a90603283611be0565b9150612a9b82612a34565b604082019050919050565b60006020820190508181036000830152612abf81612a83565b9050919050565b7f4e487b7100000000000000000000000000000000000000000000000000000000600052601260045260246000fd5b6000612b0082611c90565b9150612b0b83611c90565b925082612b1b57612b1a612ac6565b5b828204905092915050565b6000612b3182611c90565b9150612b3c83611c90565b925082612b4c57612b4b612ac6565b5b828206905092915050565b7f4e487b7100000000000000000000000000000000000000000000000000000000600052603260045260246000fd5b600081519050919050565b600082825260208201905092915050565b6000612bad82612b86565b612bb78185612b91565b9350612bc7818560208601611bf1565b612bd081611c24565b840191505092915050565b6000608082019050612bf06000830187611d25565b612bfd6020830186611d25565b612c0a6040830185611ec7565b8181036060830152612c1c8184612ba2565b905095945050505050565b600081519050612c3681611b46565b92915050565b600060208284031215612c5257612c51611b10565b5b6000612c6084828501612c27565b91505092915050565b7f4552433732313a206d696e7420746f20746865207a65726f2061646472657373600082015250565b6000612c9f602083611be0565b9150612caa82612c69565b602082019050919050565b60006020820190508181036000830152612cce81612c92565b9050919050565b7f4552433732313a20746f6b656e20616c7265616479206d696e74656400000000600082015250565b6000612d0b601c83611be0565b9150612d1682612cd5565b602082019050919050565b60006020820190508181036000830152612d3a81612cfe565b905091905056fea26469706673582212209e861866880eec1d40c396fb73f302c315551f5625b0502e2983a43b18e5b9a364736f6c634300080e0033",
  "immutableReferences": {},
  "source": "// SPDX-License-Identifier: GPL-3.0\r\npragma solidity >=0.7.0 <0.9.0;\r\n\r\nimport \"../node_modules/@openzeppelin/contracts/token/ERC721/ERC721.sol\";\r\nimport \"../node_modules/@openzeppelin/contracts/access/Ownable.sol\";\r\n\r\ncontract Token is ERC721, Ownable {\r\n\r\n    struct Animal {\r\n        uint8 domage;\r\n        uint8 magie;\r\n        uint256 lastMeal;\r\n        uint256 endurance;\r\n\r\n    }\r\n\r\n    uint256 nextID = 0;\r\n\r\n    mapping(uint256 => Animal) private _tokenDetails;\r\n\r\n    constructor(string memory name, string memory symbol)ERC721(name, symbol){\r\n\r\n    }\r\n\r\n\r\n/// @dev Cette fonction permet la cration d'un nouveau jeton (un nouvel animal)\r\nfunction create_jeton(uint8 domage, uint8 magie, uint8 endurance)public onlyOwner{\r\n    _tokenDetails[nextID] = Animal(domage, magie,block.timestamp,endurance);\r\n    _safeMint(msg.sender, nextID);\r\n    nextID++;\r\n}\r\n\r\n/// @dev Cette fonction permet de grer le repas de notre animal par exemple si l'animal meure on ne peut plus le nourrir\r\nfunction repas (uint256 tokenId)public{\r\n    Animal storage animal = _tokenDetails[nextID];\r\n    require(animal.lastMeal + animal.endurance > block.timestamp);\r\n    animal.lastMeal = block.timestamp;\r\n}\r\n\r\nfunction _beforeTokenTransfer(address from, address to, uint256 tokenId) internal override {\r\n    Animal storage animal = _tokenDetails[nextID];\r\n    require(animal.lastMeal + animal.endurance > block.timestamp); ///l'animal est toujours en vie\r\n}\r\n\r\n}\r\n\r\n\r\n",
  "sourcePath": "C:\\Users\\Guerraz Yohan\\Desktop\\blockchaine\\game\\contracts\\Token.sol",
  "compiler": {
    "name": "solc",
    "version": "0.8.14+commit.80d49f37.Emscripten.clang"
  },
  "schemaVersion": "3.4.7",
  "updatedAt": "2022-06-20T13:16:32.669Z",
  "devdoc": {
    "kind": "dev",
    "methods": {
      "approve(address,uint256)": {
        "details": "See {IERC721-approve}."
      },
      "balanceOf(address)": {
        "details": "See {IERC721-balanceOf}."
      },
      "create_jeton(uint8,uint8,uint8)": {
        "details": "Cette fonction permet la cration d'un nouveau jeton (un nouvel animal)"
      },
      "getApproved(uint256)": {
        "details": "See {IERC721-getApproved}."
      },
      "isApprovedForAll(address,address)": {
        "details": "See {IERC721-isApprovedForAll}."
      },
      "name()": {
        "details": "See {IERC721Metadata-name}."
      },
      "owner()": {
        "details": "Returns the address of the current owner."
      },
      "ownerOf(uint256)": {
        "details": "See {IERC721-ownerOf}."
      },
      "renounceOwnership()": {
        "details": "Leaves the contract without owner. It will not be possible to call `onlyOwner` functions anymore. Can only be called by the current owner. NOTE: Renouncing ownership will leave the contract without an owner, thereby removing any functionality that is only available to the owner."
      },
      "repas(uint256)": {
        "details": "Cette fonction permet de grer le repas de notre animal par exemple si l'animal meure on ne peut plus le nourrir"
      },
      "safeTransferFrom(address,address,uint256)": {
        "details": "See {IERC721-safeTransferFrom}."
      },
      "safeTransferFrom(address,address,uint256,bytes)": {
        "details": "See {IERC721-safeTransferFrom}."
      },
      "setApprovalForAll(address,bool)": {
        "details": "See {IERC721-setApprovalForAll}."
      },
      "supportsInterface(bytes4)": {
        "details": "See {IERC165-supportsInterface}."
      },
      "symbol()": {
        "details": "See {IERC721Metadata-symbol}."
      },
      "tokenURI(uint256)": {
        "details": "See {IERC721Metadata-tokenURI}."
      },
      "transferFrom(address,address,uint256)": {
        "details": "See {IERC721-transferFrom}."
      },
      "transferOwnership(address)": {
        "details": "Transfers ownership of the contract to a new account (`newOwner`). Can only be called by the current owner."
      }
    },
    "version": 1
  },
  "userdoc": {
    "kind": "user",
    "methods": {},
    "version": 1
  }
}