{
  "contractName": "Token",
  "abi": [
    {
      "inputs": [
        {
          "internalType": "string",
          "name": "name",
          "type": "string"
        },
        {
          "internalType": "string",
          "name": "symbol",
          "type": "string"
        }
      ],
      "stateMutability": "nonpayable",
      "type": "constructor"
    },
    {
      "anonymous": false,
      "inputs": [
        {
          "indexed": true,
          "internalType": "address",
          "name": "owner",
          "type": "address"
        },
        {
          "indexed": true,
          "internalType": "address",
          "name": "approved",
          "type": "address"
        },
        {
          "indexed": true,
          "internalType": "uint256",
          "name": "tokenId",
          "type": "uint256"
        }
      ],
      "name": "Approval",
      "type": "event"
    },
    {
      "anonymous": false,
      "inputs": [
        {
          "indexed": true,
          "internalType": "address",
          "name": "owner",
          "type": "address"
        },
        {
          "indexed": true,
          "internalType": "address",
          "name": "operator",
          "type": "address"
        },
        {
          "indexed": false,
          "internalType": "bool",
          "name": "approved",
          "type": "bool"
        }
      ],
      "name": "ApprovalForAll",
      "type": "event"
    },
    {
      "anonymous": false,
      "inputs": [
        {
          "indexed": true,
          "internalType": "address",
          "name": "previousOwner",
          "type": "address"
        },
        {
          "indexed": true,
          "internalType": "address",
          "name": "newOwner",
          "type": "address"
        }
      ],
      "name": "OwnershipTransferred",
      "type": "event"
    },
    {
      "anonymous": false,
      "inputs": [
        {
          "indexed": true,
          "internalType": "address",
          "name": "from",
          "type": "address"
        },
        {
          "indexed": true,
          "internalType": "address",
          "name": "to",
          "type": "address"
        },
        {
          "indexed": true,
          "internalType": "uint256",
          "name": "tokenId",
          "type": "uint256"
        }
      ],
      "name": "Transfer",
      "type": "event"
    },
    {
      "inputs": [
        {
          "internalType": "address",
          "name": "to",
          "type": "address"
        },
        {
          "internalType": "uint256",
          "name": "tokenId",
          "type": "uint256"
        }
      ],
      "name": "approve",
      "outputs": [],
      "stateMutability": "nonpayable",
      "type": "function"
    },
    {
      "inputs": [
        {
          "internalType": "address",
          "name": "owner",
          "type": "address"
        }
      ],
      "name": "balanceOf",
      "outputs": [
        {
          "internalType": "uint256",
          "name": "",
          "type": "uint256"
        }
      ],
      "stateMutability": "view",
      "type": "function"
    },
    {
      "inputs": [
        {
          "internalType": "uint256",
          "name": "tokenId",
          "type": "uint256"
        }
      ],
      "name": "getApproved",
      "outputs": [
        {
          "internalType": "address",
          "name": "",
          "type": "address"
        }
      ],
      "stateMutability": "view",
      "type": "function"
    },
    {
      "inputs": [
        {
          "internalType": "address",
          "name": "owner",
          "type": "address"
        },
        {
          "internalType": "address",
          "name": "operator",
          "type": "address"
        }
      ],
      "name": "isApprovedForAll",
      "outputs": [
        {
          "internalType": "bool",
          "name": "",
          "type": "bool"
        }
      ],
      "stateMutability": "view",
      "type": "function"
    },
    {
      "inputs": [],
      "name": "name",
      "outputs": [
        {
          "internalType": "string",
          "name": "",
          "type": "string"
        }
      ],
      "stateMutability": "view",
      "type": "function"
    },
    {
      "inputs": [],
      "name": "owner",
      "outputs": [
        {
          "internalType": "address",
          "name": "",
          "type": "address"
        }
      ],
      "stateMutability": "view",
      "type": "function"
    },
    {
      "inputs": [
        {
          "internalType": "uint256",
          "name": "tokenId",
          "type": "uint256"
        }
      ],
      "name": "ownerOf",
      "outputs": [
        {
          "internalType": "address",
          "name": "",
          "type": "address"
        }
      ],
      "stateMutability": "view",
      "type": "function"
    },
    {
      "inputs": [],
      "name": "renounceOwnership",
      "outputs": [],
      "stateMutability": "nonpayable",
      "type": "function"
    },
    {
      "inputs": [
        {
          "internalType": "address",
          "name": "from",
          "type": "address"
        },
        {
          "internalType": "address",
          "name": "to",
          "type": "address"
        },
        {
          "internalType": "uint256",
          "name": "tokenId",
          "type": "uint256"
        }
      ],
      "name": "safeTransferFrom",
      "outputs": [],
      "stateMutability": "nonpayable",
      "type": "function"
    },
    {
      "inputs": [
        {
          "internalType": "address",
          "name": "from",
          "type": "address"
        },
        {
          "internalType": "address",
          "name": "to",
          "type": "address"
        },
        {
          "internalType": "uint256",
          "name": "tokenId",
          "type": "uint256"
        },
        {
          "internalType": "bytes",
          "name": "_data",
          "type": "bytes"
        }
      ],
      "name": "safeTransferFrom",
      "outputs": [],
      "stateMutability": "nonpayable",
      "type": "function"
    },
    {
      "inputs": [
        {
          "internalType": "address",
          "name": "operator",
          "type": "address"
        },
        {
          "internalType": "bool",
          "name": "approved",
          "type": "bool"
        }
      ],
      "name": "setApprovalForAll",
      "outputs": [],
      "stateMutability": "nonpayable",
      "type": "function"
    },
    {
      "inputs": [
        {
          "internalType": "bytes4",
          "name": "interfaceId",
          "type": "bytes4"
        }
      ],
      "name": "supportsInterface",
      "outputs": [
        {
          "internalType": "bool",
          "name": "",
          "type": "bool"
        }
      ],
      "stateMutability": "view",
      "type": "function"
    },
    {
      "inputs": [],
      "name": "symbol",
      "outputs": [
        {
          "internalType": "string",
          "name": "",
          "type": "string"
        }
      ],
      "stateMutability": "view",
      "type": "function"
    },
    {
      "inputs": [
        {
          "internalType": "uint256",
          "name": "tokenId",
          "type": "uint256"
        }
      ],
      "name": "tokenURI",
      "outputs": [
        {
          "internalType": "string",
          "name": "",
          "type": "string"
        }
      ],
      "stateMutability": "view",
      "type": "function"
    },
    {
      "inputs": [
        {
          "internalType": "address",
          "name": "from",
          "type": "address"
        },
        {
          "internalType": "address",
          "name": "to",
          "type": "address"
        },
        {
          "internalType": "uint256",
          "name": "tokenId",
          "type": "uint256"
        }
      ],
      "name": "transferFrom",
      "outputs": [],
      "stateMutability": "nonpayable",
      "type": "function"
    },
    {
      "inputs": [
        {
          "internalType": "address",
          "name": "newOwner",
          "type": "address"
        }
      ],
      "name": "transferOwnership",
      "outputs": [],
      "stateMutability": "nonpayable",
      "type": "function"
    },
    {
      "inputs": [
        {
          "internalType": "uint256",
          "name": "tokenId",
          "type": "uint256"
        }
      ],
      "name": "getTokenDetails",
      "outputs": [
        {
          "components": [
            {
              "internalType": "uint8",
              "name": "degats",
              "type": "uint8"
            },
            {
              "internalType": "uint8",
              "name": "magie",
              "type": "uint8"
            },
            {
              "internalType": "uint256",
              "name": "lastMeal",
              "type": "uint256"
            },
            {
              "internalType": "uint256",
              "name": "endurance",
              "type": "uint256"
            }
          ],
          "internalType": "struct Token.Animal",
          "name": "",
          "type": "tuple"
        }
      ],
      "stateMutability": "view",
      "type": "function"
    },
    {
      "inputs": [
        {
          "internalType": "uint8",
          "name": "degats",
          "type": "uint8"
        },
        {
          "internalType": "uint8",
          "name": "magie",
          "type": "uint8"
        },
        {
          "internalType": "uint256",
          "name": "endurance",
          "type": "uint256"
        }
      ],
      "name": "create_jeton",
      "outputs": [],
      "stateMutability": "nonpayable",
      "type": "function"
    },
    {
      "inputs": [
        {
          "internalType": "uint256",
          "name": "tokenId",
          "type": "uint256"
        }
      ],
      "name": "repas",
      "outputs": [],
      "stateMutability": "nonpayable",
      "type": "function"
    }
  ],
  "bytecode": "0x608060405260006007553480156200001657600080fd5b50604051620033943803806200339483398181016040528101906200003c9190620003b5565b818181600090805190602001906200005692919062000168565b5080600190805190602001906200006f92919062000168565b50505062000092620000866200009a60201b60201c565b620000a260201b60201c565b50506200049e565b600033905090565b6000600660009054906101000a900473ffffffffffffffffffffffffffffffffffffffff16905081600660006101000a81548173ffffffffffffffffffffffffffffffffffffffff021916908373ffffffffffffffffffffffffffffffffffffffff1602179055508173ffffffffffffffffffffffffffffffffffffffff168173ffffffffffffffffffffffffffffffffffffffff167f8be0079c531659141344cd1fd0a4f28419497f9722a3daafe3b4186f6b6457e060405160405180910390a35050565b828054620001769062000469565b90600052602060002090601f0160209004810192826200019a5760008555620001e6565b82601f10620001b557805160ff1916838001178555620001e6565b82800160010185558215620001e6579182015b82811115620001e5578251825591602001919060010190620001c8565b5b509050620001f59190620001f9565b5090565b5b8082111562000214576000816000905550600101620001fa565b5090565b6000604051905090565b600080fd5b600080fd5b600080fd5b600080fd5b6000601f19601f8301169050919050565b7f4e487b7100000000000000000000000000000000000000000000000000000000600052604160045260246000fd5b620002818262000236565b810181811067ffffffffffffffff82111715620002a357620002a262000247565b5b80604052505050565b6000620002b862000218565b9050620002c6828262000276565b919050565b600067ffffffffffffffff821115620002e957620002e862000247565b5b620002f48262000236565b9050602081019050919050565b60005b838110156200032157808201518184015260208101905062000304565b8381111562000331576000848401525b50505050565b60006200034e6200034884620002cb565b620002ac565b9050828152602081018484840111156200036d576200036c62000231565b5b6200037a84828562000301565b509392505050565b600082601f8301126200039a57620003996200022c565b5b8151620003ac84826020860162000337565b91505092915050565b60008060408385031215620003cf57620003ce62000222565b5b600083015167ffffffffffffffff811115620003f057620003ef62000227565b5b620003fe8582860162000382565b925050602083015167ffffffffffffffff81111562000422576200042162000227565b5b620004308582860162000382565b9150509250929050565b7f4e487b7100000000000000000000000000000000000000000000000000000000600052602260045260246000fd5b600060028204905060018216806200048257607f821691505b6020821081036200049857620004976200043a565b5b50919050565b612ee680620004ae6000396000f3fe608060405234801561001057600080fd5b50600436106101215760003560e01c806370a08231116100ad578063b88d4fde11610071578063b88d4fde146102f2578063c1e037281461030e578063c87b56dd1461033e578063e985e9c51461036e578063f2fde38b1461039e57610121565b806370a0823114610260578063715018a6146102905780638da5cb5b1461029a57806395d89b41146102b8578063a22cb465146102d657610121565b80630a4a474a116100f45780630a4a474a146101c057806323b872dd146101dc57806329b54bb0146101f857806342842e0e146102145780636352211e1461023057610121565b806301ffc9a71461012657806306fdde0314610156578063081812fc14610174578063095ea7b3146101a4575b600080fd5b610140600480360381019061013b9190611c53565b6103ba565b60405161014d9190611c9b565b60405180910390f35b61015e61049c565b60405161016b9190611d4f565b60405180910390f35b61018e60048036038101906101899190611da7565b61052e565b60405161019b9190611e15565b60405180910390f35b6101be60048036038101906101b99190611e5c565b6105b3565b005b6101da60048036038101906101d59190611ed5565b6106ca565b005b6101f660048036038101906101f19190611f28565b610804565b005b610212600480360381019061020d9190611da7565b610864565b005b61022e60048036038101906102299190611f28565b6108a9565b005b61024a60048036038101906102459190611da7565b6108c9565b6040516102579190611e15565b60405180910390f35b61027a60048036038101906102759190611f7b565b61097a565b6040516102879190611fb7565b60405180910390f35b610298610a31565b005b6102a2610ab9565b6040516102af9190611e15565b60405180910390f35b6102c0610ae3565b6040516102cd9190611d4f565b60405180910390f35b6102f060048036038101906102eb9190611ffe565b610b75565b005b61030c60048036038101906103079190612173565b610b8b565b005b61032860048036038101906103239190611da7565b610bed565b6040516103359190612269565b60405180910390f35b61035860048036038101906103539190611da7565b610c68565b6040516103659190611d4f565b60405180910390f35b61038860048036038101906103839190612284565b610d0f565b6040516103959190611c9b565b60405180910390f35b6103b860048036038101906103b39190611f7b565b610da3565b005b60007f80ac58cd000000000000000000000000000000000000000000000000000000007bffffffffffffffffffffffffffffffffffffffffffffffffffffffff1916827bffffffffffffffffffffffffffffffffffffffffffffffffffffffff1916148061048557507f5b5e139f000000000000000000000000000000000000000000000000000000007bffffffffffffffffffffffffffffffffffffffffffffffffffffffff1916827bffffffffffffffffffffffffffffffffffffffffffffffffffffffff1916145b80610495575061049482610e9a565b5b9050919050565b6060600080546104ab906122f3565b80601f01602080910402602001604051908101604052809291908181526020018280546104d7906122f3565b80156105245780601f106104f957610100808354040283529160200191610524565b820191906000526020600020905b81548152906001019060200180831161050757829003601f168201915b5050505050905090565b600061053982610f04565b610578576040517f08c379a000000000000000000000000000000000000000000000000000000000815260040161056f90612396565b60405180910390fd5b6004600083815260200190815260200160002060009054906101000a900473ffffffffffffffffffffffffffffffffffffffff169050919050565b60006105be826108c9565b90508073ffffffffffffffffffffffffffffffffffffffff168373ffffffffffffffffffffffffffffffffffffffff160361062e576040517f08c379a000000000000000000000000000000000000000000000000000000000815260040161062590612428565b60405180910390fd5b8073ffffffffffffffffffffffffffffffffffffffff1661064d610f70565b73ffffffffffffffffffffffffffffffffffffffff16148061067c575061067b81610676610f70565b610d0f565b5b6106bb576040517f08c379a00000000000000000000000000000000000000000000000000000000081526004016106b2906124ba565b60405180910390fd5b6106c58383610f78565b505050565b6106d2610f70565b73ffffffffffffffffffffffffffffffffffffffff166106f0610ab9565b73ffffffffffffffffffffffffffffffffffffffff1614610746576040517f08c379a000000000000000000000000000000000000000000000000000000000815260040161073d90612526565b60405180910390fd5b61075233600754611031565b60405180608001604052808460ff1681526020018360ff1681526020014281526020018281525060086000600754815260200190815260200160002060008201518160000160006101000a81548160ff021916908360ff16021790555060208201518160000160016101000a81548160ff021916908360ff1602179055506040820151816001015560608201518160020155905050600760008154809291906107fa90612575565b9190505550505050565b61081561080f610f70565b8261104f565b610854576040517f08c379a000000000000000000000000000000000000000000000000000000000815260040161084b9061262f565b60405180910390fd5b61085f83838361112d565b505050565b600060086000600754815260200190815260200160002090504281600201548260010154610892919061264f565b1161089c57600080fd5b4281600101819055505050565b6108c483838360405180602001604052806000815250610b8b565b505050565b6000806002600084815260200190815260200160002060009054906101000a900473ffffffffffffffffffffffffffffffffffffffff169050600073ffffffffffffffffffffffffffffffffffffffff168173ffffffffffffffffffffffffffffffffffffffff1603610971576040517f08c379a000000000000000000000000000000000000000000000000000000000815260040161096890612717565b60405180910390fd5b80915050919050565b60008073ffffffffffffffffffffffffffffffffffffffff168273ffffffffffffffffffffffffffffffffffffffff16036109ea576040517f08c379a00000000000000000000000000000000000000000000000000000000081526004016109e1906127a9565b60405180910390fd5b600360008373ffffffffffffffffffffffffffffffffffffffff1673ffffffffffffffffffffffffffffffffffffffff168152602001908152602001600020549050919050565b610a39610f70565b73ffffffffffffffffffffffffffffffffffffffff16610a57610ab9565b73ffffffffffffffffffffffffffffffffffffffff1614610aad576040517f08c379a0000000000000000000000000000000000000000000000000000000008152600401610aa490612526565b60405180910390fd5b610ab76000611393565b565b6000600660009054906101000a900473ffffffffffffffffffffffffffffffffffffffff16905090565b606060018054610af2906122f3565b80601f0160208091040260200160405190810160405280929190818152602001828054610b1e906122f3565b8015610b6b5780601f10610b4057610100808354040283529160200191610b6b565b820191906000526020600020905b815481529060010190602001808311610b4e57829003601f168201915b5050505050905090565b610b87610b80610f70565b8383611459565b5050565b610b9c610b96610f70565b8361104f565b610bdb576040517f08c379a0000000000000000000000000000000000000000000000000000000008152600401610bd29061262f565b60405180910390fd5b610be7848484846115c5565b50505050565b610bf5611bb9565b600860008381526020019081526020016000206040518060800160405290816000820160009054906101000a900460ff1660ff1660ff1681526020016000820160019054906101000a900460ff1660ff1660ff168152602001600182015481526020016002820154815250509050919050565b6060610c7382610f04565b610cb2576040517f08c379a0000000000000000000000000000000000000000000000000000000008152600401610ca99061283b565b60405180910390fd5b6000610cbc611621565b90506000815111610cdc5760405180602001604052806000815250610d07565b80610ce684611638565b604051602001610cf7929190612897565b6040516020818303038152906040525b915050919050565b6000600560008473ffffffffffffffffffffffffffffffffffffffff1673ffffffffffffffffffffffffffffffffffffffff16815260200190815260200160002060008373ffffffffffffffffffffffffffffffffffffffff1673ffffffffffffffffffffffffffffffffffffffff16815260200190815260200160002060009054906101000a900460ff16905092915050565b610dab610f70565b73ffffffffffffffffffffffffffffffffffffffff16610dc9610ab9565b73ffffffffffffffffffffffffffffffffffffffff1614610e1f576040517f08c379a0000000000000000000000000000000000000000000000000000000008152600401610e1690612526565b60405180910390fd5b600073ffffffffffffffffffffffffffffffffffffffff168173ffffffffffffffffffffffffffffffffffffffff1603610e8e576040517f08c379a0000000000000000000000000000000000000000000000000000000008152600401610e859061292d565b60405180910390fd5b610e9781611393565b50565b60007f01ffc9a7000000000000000000000000000000000000000000000000000000007bffffffffffffffffffffffffffffffffffffffffffffffffffffffff1916827bffffffffffffffffffffffffffffffffffffffffffffffffffffffff1916149050919050565b60008073ffffffffffffffffffffffffffffffffffffffff166002600084815260200190815260200160002060009054906101000a900473ffffffffffffffffffffffffffffffffffffffff1673ffffffffffffffffffffffffffffffffffffffff1614159050919050565b600033905090565b816004600083815260200190815260200160002060006101000a81548173ffffffffffffffffffffffffffffffffffffffff021916908373ffffffffffffffffffffffffffffffffffffffff160217905550808273ffffffffffffffffffffffffffffffffffffffff16610feb836108c9565b73ffffffffffffffffffffffffffffffffffffffff167f8c5be1e5ebec7d5bd14f71427d1e84f3dd0314c0f7b2291e5b200ac8c7c3b92560405160405180910390a45050565b61104b828260405180602001604052806000815250611798565b5050565b600061105a82610f04565b611099576040517f08c379a0000000000000000000000000000000000000000000000000000000008152600401611090906129bf565b60405180910390fd5b60006110a4836108c9565b90508073ffffffffffffffffffffffffffffffffffffffff168473ffffffffffffffffffffffffffffffffffffffff1614806110e657506110e58185610d0f565b5b8061112457508373ffffffffffffffffffffffffffffffffffffffff1661110c8461052e565b73ffffffffffffffffffffffffffffffffffffffff16145b91505092915050565b8273ffffffffffffffffffffffffffffffffffffffff1661114d826108c9565b73ffffffffffffffffffffffffffffffffffffffff16146111a3576040517f08c379a000000000000000000000000000000000000000000000000000000000815260040161119a90612a51565b60405180910390fd5b600073ffffffffffffffffffffffffffffffffffffffff168273ffffffffffffffffffffffffffffffffffffffff1603611212576040517f08c379a000000000000000000000000000000000000000000000000000000000815260040161120990612ae3565b60405180910390fd5b61121d8383836117f3565b611228600082610f78565b6001600360008573ffffffffffffffffffffffffffffffffffffffff1673ffffffffffffffffffffffffffffffffffffffff16815260200190815260200160002060008282546112789190612b03565b925050819055506001600360008473ffffffffffffffffffffffffffffffffffffffff1673ffffffffffffffffffffffffffffffffffffffff16815260200190815260200160002060008282546112cf919061264f565b92505081905550816002600083815260200190815260200160002060006101000a81548173ffffffffffffffffffffffffffffffffffffffff021916908373ffffffffffffffffffffffffffffffffffffffff160217905550808273ffffffffffffffffffffffffffffffffffffffff168473ffffffffffffffffffffffffffffffffffffffff167fddf252ad1be2c89b69c2b068fc378daa952ba7f163c4a11628f55a4df523b3ef60405160405180910390a461138e838383611831565b505050565b6000600660009054906101000a900473ffffffffffffffffffffffffffffffffffffffff16905081600660006101000a81548173ffffffffffffffffffffffffffffffffffffffff021916908373ffffffffffffffffffffffffffffffffffffffff1602179055508173ffffffffffffffffffffffffffffffffffffffff168173ffffffffffffffffffffffffffffffffffffffff167f8be0079c531659141344cd1fd0a4f28419497f9722a3daafe3b4186f6b6457e060405160405180910390a35050565b8173ffffffffffffffffffffffffffffffffffffffff168373ffffffffffffffffffffffffffffffffffffffff16036114c7576040517f08c379a00000000000000000000000000000000000000000000000000000000081526004016114be90612b83565b60405180910390fd5b80600560008573ffffffffffffffffffffffffffffffffffffffff1673ffffffffffffffffffffffffffffffffffffffff16815260200190815260200160002060008473ffffffffffffffffffffffffffffffffffffffff1673ffffffffffffffffffffffffffffffffffffffff16815260200190815260200160002060006101000a81548160ff0219169083151502179055508173ffffffffffffffffffffffffffffffffffffffff168373ffffffffffffffffffffffffffffffffffffffff167f17307eab39ab6107e8899845ad3d59bd9653f200f220920489ca2b5937696c31836040516115b89190611c9b565b60405180910390a3505050565b6115d084848461112d565b6115dc84848484611836565b61161b576040517f08c379a000000000000000000000000000000000000000000000000000000000815260040161161290612c15565b60405180910390fd5b50505050565b606060405180602001604052806000815250905090565b60606000820361167f576040518060400160405280600181526020017f30000000000000000000000000000000000000000000000000000000000000008152509050611793565b600082905060005b600082146116b157808061169a90612575565b915050600a826116aa9190612c64565b9150611687565b60008167ffffffffffffffff8111156116cd576116cc612048565b5b6040519080825280601f01601f1916602001820160405280156116ff5781602001600182028036833780820191505090505b5090505b6000851461178c576001826117189190612b03565b9150600a856117279190612c95565b6030611733919061264f565b60f81b81838151811061174957611748612cc6565b5b60200101907effffffffffffffffffffffffffffffffffffffffffffffffffffffffffffff1916908160001a905350600a856117859190612c64565b9450611703565b8093505050505b919050565b6117a283836119bd565b6117af6000848484611836565b6117ee576040517f08c379a00000000000000000000000000000000000000000000000000000000081526004016117e590612c15565b60405180910390fd5b505050565b600060086000600754815260200190815260200160002090504281600201548260010154611821919061264f565b1161182b57600080fd5b50505050565b505050565b60006118578473ffffffffffffffffffffffffffffffffffffffff16611b96565b156119b0578373ffffffffffffffffffffffffffffffffffffffff1663150b7a02611880610f70565b8786866040518563ffffffff1660e01b81526004016118a29493929190612d4a565b6020604051808303816000875af19250505080156118de57506040513d601f19601f820116820180604052508101906118db9190612dab565b60015b611960573d806000811461190e576040519150601f19603f3d011682016040523d82523d6000602084013e611913565b606091505b506000815103611958576040517f08c379a000000000000000000000000000000000000000000000000000000000815260040161194f90612c15565b60405180910390fd5b805181602001fd5b63150b7a0260e01b7bffffffffffffffffffffffffffffffffffffffffffffffffffffffff1916817bffffffffffffffffffffffffffffffffffffffffffffffffffffffff1916149150506119b5565b600190505b949350505050565b600073ffffffffffffffffffffffffffffffffffffffff168273ffffffffffffffffffffffffffffffffffffffff1603611a2c576040517f08c379a0000000000000000000000000000000000000000000000000000000008152600401611a2390612e24565b60405180910390fd5b611a3581610f04565b15611a75576040517f08c379a0000000000000000000000000000000000000000000000000000000008152600401611a6c90612e90565b60405180910390fd5b611a81600083836117f3565b6001600360008473ffffffffffffffffffffffffffffffffffffffff1673ffffffffffffffffffffffffffffffffffffffff1681526020019081526020016000206000828254611ad1919061264f565b92505081905550816002600083815260200190815260200160002060006101000a81548173ffffffffffffffffffffffffffffffffffffffff021916908373ffffffffffffffffffffffffffffffffffffffff160217905550808273ffffffffffffffffffffffffffffffffffffffff16600073ffffffffffffffffffffffffffffffffffffffff167fddf252ad1be2c89b69c2b068fc378daa952ba7f163c4a11628f55a4df523b3ef60405160405180910390a4611b9260008383611831565b5050565b6000808273ffffffffffffffffffffffffffffffffffffffff163b119050919050565b6040518060800160405280600060ff168152602001600060ff16815260200160008152602001600081525090565b6000604051905090565b600080fd5b600080fd5b60007fffffffff0000000000000000000000000000000000000000000000000000000082169050919050565b611c3081611bfb565b8114611c3b57600080fd5b50565b600081359050611c4d81611c27565b92915050565b600060208284031215611c6957611c68611bf1565b5b6000611c7784828501611c3e565b91505092915050565b60008115159050919050565b611c9581611c80565b82525050565b6000602082019050611cb06000830184611c8c565b92915050565b600081519050919050565b600082825260208201905092915050565b60005b83811015611cf0578082015181840152602081019050611cd5565b83811115611cff576000848401525b50505050565b6000601f19601f8301169050919050565b6000611d2182611cb6565b611d2b8185611cc1565b9350611d3b818560208601611cd2565b611d4481611d05565b840191505092915050565b60006020820190508181036000830152611d698184611d16565b905092915050565b6000819050919050565b611d8481611d71565b8114611d8f57600080fd5b50565b600081359050611da181611d7b565b92915050565b600060208284031215611dbd57611dbc611bf1565b5b6000611dcb84828501611d92565b91505092915050565b600073ffffffffffffffffffffffffffffffffffffffff82169050919050565b6000611dff82611dd4565b9050919050565b611e0f81611df4565b82525050565b6000602082019050611e2a6000830184611e06565b92915050565b611e3981611df4565b8114611e4457600080fd5b50565b600081359050611e5681611e30565b92915050565b60008060408385031215611e7357611e72611bf1565b5b6000611e8185828601611e47565b9250506020611e9285828601611d92565b9150509250929050565b600060ff82169050919050565b611eb281611e9c565b8114611ebd57600080fd5b50565b600081359050611ecf81611ea9565b92915050565b600080600060608486031215611eee57611eed611bf1565b5b6000611efc86828701611ec0565b9350506020611f0d86828701611ec0565b9250506040611f1e86828701611d92565b9150509250925092565b600080600060608486031215611f4157611f40611bf1565b5b6000611f4f86828701611e47565b9350506020611f6086828701611e47565b9250506040611f7186828701611d92565b9150509250925092565b600060208284031215611f9157611f90611bf1565b5b6000611f9f84828501611e47565b91505092915050565b611fb181611d71565b82525050565b6000602082019050611fcc6000830184611fa8565b92915050565b611fdb81611c80565b8114611fe657600080fd5b50565b600081359050611ff881611fd2565b92915050565b6000806040838503121561201557612014611bf1565b5b600061202385828601611e47565b925050602061203485828601611fe9565b9150509250929050565b600080fd5b600080fd5b7f4e487b7100000000000000000000000000000000000000000000000000000000600052604160045260246000fd5b61208082611d05565b810181811067ffffffffffffffff8211171561209f5761209e612048565b5b80604052505050565b60006120b2611be7565b90506120be8282612077565b919050565b600067ffffffffffffffff8211156120de576120dd612048565b5b6120e782611d05565b9050602081019050919050565b82818337600083830152505050565b6000612116612111846120c3565b6120a8565b90508281526020810184848401111561213257612131612043565b5b61213d8482856120f4565b509392505050565b600082601f83011261215a5761215961203e565b5b813561216a848260208601612103565b91505092915050565b6000806000806080858703121561218d5761218c611bf1565b5b600061219b87828801611e47565b94505060206121ac87828801611e47565b93505060406121bd87828801611d92565b925050606085013567ffffffffffffffff8111156121de576121dd611bf6565b5b6121ea87828801612145565b91505092959194509250565b6121ff81611e9c565b82525050565b61220e81611d71565b82525050565b60808201600082015161222a60008501826121f6565b50602082015161223d60208501826121f6565b5060408201516122506040850182612205565b5060608201516122636060850182612205565b50505050565b600060808201905061227e6000830184612214565b92915050565b6000806040838503121561229b5761229a611bf1565b5b60006122a985828601611e47565b92505060206122ba85828601611e47565b9150509250929050565b7f4e487b7100000000000000000000000000000000000000000000000000000000600052602260045260246000fd5b6000600282049050600182168061230b57607f821691505b60208210810361231e5761231d6122c4565b5b50919050565b7f4552433732313a20617070726f76656420717565727920666f72206e6f6e657860008201527f697374656e7420746f6b656e0000000000000000000000000000000000000000602082015250565b6000612380602c83611cc1565b915061238b82612324565b604082019050919050565b600060208201905081810360008301526123af81612373565b9050919050565b7f4552433732313a20617070726f76616c20746f2063757272656e74206f776e6560008201527f7200000000000000000000000000000000000000000000000000000000000000602082015250565b6000612412602183611cc1565b915061241d826123b6565b604082019050919050565b6000602082019050818103600083015261244181612405565b9050919050565b7f4552433732313a20617070726f76652063616c6c6572206973206e6f74206f7760008201527f6e6572206e6f7220617070726f76656420666f7220616c6c0000000000000000602082015250565b60006124a4603883611cc1565b91506124af82612448565b604082019050919050565b600060208201905081810360008301526124d381612497565b9050919050565b7f4f776e61626c653a2063616c6c6572206973206e6f7420746865206f776e6572600082015250565b6000612510602083611cc1565b915061251b826124da565b602082019050919050565b6000602082019050818103600083015261253f81612503565b9050919050565b7f4e487b7100000000000000000000000000000000000000000000000000000000600052601160045260246000fd5b600061258082611d71565b91507fffffffffffffffffffffffffffffffffffffffffffffffffffffffffffffffff82036125b2576125b1612546565b5b600182019050919050565b7f4552433732313a207472616e736665722063616c6c6572206973206e6f74206f60008201527f776e6572206e6f7220617070726f766564000000000000000000000000000000602082015250565b6000612619603183611cc1565b9150612624826125bd565b604082019050919050565b600060208201905081810360008301526126488161260c565b9050919050565b600061265a82611d71565b915061266583611d71565b9250827fffffffffffffffffffffffffffffffffffffffffffffffffffffffffffffffff0382111561269a57612699612546565b5b828201905092915050565b7f4552433732313a206f776e657220717565727920666f72206e6f6e657869737460008201527f656e7420746f6b656e0000000000000000000000000000000000000000000000602082015250565b6000612701602983611cc1565b915061270c826126a5565b604082019050919050565b60006020820190508181036000830152612730816126f4565b9050919050565b7f4552433732313a2062616c616e636520717565727920666f7220746865207a6560008201527f726f206164647265737300000000000000000000000000000000000000000000602082015250565b6000612793602a83611cc1565b915061279e82612737565b604082019050919050565b600060208201905081810360008301526127c281612786565b9050919050565b7f4552433732314d657461646174613a2055524920717565727920666f72206e6f60008201527f6e6578697374656e7420746f6b656e0000000000000000000000000000000000602082015250565b6000612825602f83611cc1565b9150612830826127c9565b604082019050919050565b6000602082019050818103600083015261285481612818565b9050919050565b600081905092915050565b600061287182611cb6565b61287b818561285b565b935061288b818560208601611cd2565b80840191505092915050565b60006128a38285612866565b91506128af8284612866565b91508190509392505050565b7f4f776e61626c653a206e6577206f776e657220697320746865207a65726f206160008201527f6464726573730000000000000000000000000000000000000000000000000000602082015250565b6000612917602683611cc1565b9150612922826128bb565b604082019050919050565b600060208201905081810360008301526129468161290a565b9050919050565b7f4552433732313a206f70657261746f7220717565727920666f72206e6f6e657860008201527f697374656e7420746f6b656e0000000000000000000000000000000000000000602082015250565b60006129a9602c83611cc1565b91506129b48261294d565b604082019050919050565b600060208201905081810360008301526129d88161299c565b9050919050565b7f4552433732313a207472616e736665722066726f6d20696e636f72726563742060008201527f6f776e6572000000000000000000000000000000000000000000000000000000602082015250565b6000612a3b602583611cc1565b9150612a46826129df565b604082019050919050565b60006020820190508181036000830152612a6a81612a2e565b9050919050565b7f4552433732313a207472616e7366657220746f20746865207a65726f2061646460008201527f7265737300000000000000000000000000000000000000000000000000000000602082015250565b6000612acd602483611cc1565b9150612ad882612a71565b604082019050919050565b60006020820190508181036000830152612afc81612ac0565b9050919050565b6000612b0e82611d71565b9150612b1983611d71565b925082821015612b2c57612b2b612546565b5b828203905092915050565b7f4552433732313a20617070726f766520746f2063616c6c657200000000000000600082015250565b6000612b6d601983611cc1565b9150612b7882612b37565b602082019050919050565b60006020820190508181036000830152612b9c81612b60565b9050919050565b7f4552433732313a207472616e7366657220746f206e6f6e20455243373231526560008201527f63656976657220696d706c656d656e7465720000000000000000000000000000602082015250565b6000612bff603283611cc1565b9150612c0a82612ba3565b604082019050919050565b60006020820190508181036000830152612c2e81612bf2565b9050919050565b7f4e487b7100000000000000000000000000000000000000000000000000000000600052601260045260246000fd5b6000612c6f82611d71565b9150612c7a83611d71565b925082612c8a57612c89612c35565b5b828204905092915050565b6000612ca082611d71565b9150612cab83611d71565b925082612cbb57612cba612c35565b5b828206905092915050565b7f4e487b7100000000000000000000000000000000000000000000000000000000600052603260045260246000fd5b600081519050919050565b600082825260208201905092915050565b6000612d1c82612cf5565b612d268185612d00565b9350612d36818560208601611cd2565b612d3f81611d05565b840191505092915050565b6000608082019050612d5f6000830187611e06565b612d6c6020830186611e06565b612d796040830185611fa8565b8181036060830152612d8b8184612d11565b905095945050505050565b600081519050612da581611c27565b92915050565b600060208284031215612dc157612dc0611bf1565b5b6000612dcf84828501612d96565b91505092915050565b7f4552433732313a206d696e7420746f20746865207a65726f2061646472657373600082015250565b6000612e0e602083611cc1565b9150612e1982612dd8565b602082019050919050565b60006020820190508181036000830152612e3d81612e01565b9050919050565b7f4552433732313a20746f6b656e20616c7265616479206d696e74656400000000600082015250565b6000612e7a601c83611cc1565b9150612e8582612e44565b602082019050919050565b60006020820190508181036000830152612ea981612e6d565b905091905056fea2646970667358221220c856e1613710a34149f6e896202d7daf6b80617b16090bed7106086e785a5a0464736f6c634300080e0033",
  "immutableReferences": {},
  "source": "// SPDX-License-Identifier: GPL-3.0\r\npragma solidity >=0.7.0 <0.9.0;\r\n\r\nimport \"../node_modules/@openzeppelin/contracts/token/ERC721/ERC721.sol\";\r\nimport \"../node_modules/@openzeppelin/contracts/access/Ownable.sol\";\r\n\r\ncontract Token is ERC721, Ownable {\r\n\r\n    struct Animal {\r\n        uint8 degats;\r\n        uint8 magie;\r\n        uint256 lastMeal;\r\n        uint256 endurance;\r\n\r\n    }\r\n\r\n    uint256 nextID = 0;\r\n\r\n    mapping(uint256 => Animal) private _tokenDetails;\r\n\r\n    constructor(string memory name, string memory symbol)ERC721(name, symbol){\r\n\r\n    }\r\n\r\nfunction getTokenDetails(uint256 tokenId)public view returns (Animal memory){\r\n    return _tokenDetails[tokenId];\r\n}\r\n\r\n/// @dev Cette fonction permet la cration d'un nouveau jeton (un nouvel animal)\r\nfunction create_jeton(uint8 degats, uint8 magie, uint256 endurance)public onlyOwner{\r\n    _safeMint(msg.sender, nextID);\r\n    _tokenDetails[nextID] = Animal(degats, magie,block.timestamp,endurance);\r\n    nextID++;\r\n}\r\n\r\n/// @dev Cette fonction permet de grer le repas de notre animal par exemple si l'animal meure on ne peut plus le nourrir\r\nfunction repas (uint256 tokenId)public{\r\n    Animal storage animal = _tokenDetails[nextID];\r\n    require(animal.lastMeal + animal.endurance > block.timestamp);\r\n    animal.lastMeal = block.timestamp;\r\n}\r\n\r\nfunction _beforeTokenTransfer(address from, address to, uint256 tokenId) internal override {\r\n    Animal storage animal = _tokenDetails[nextID];\r\n    require(animal.lastMeal + animal.endurance > block.timestamp); ///l'animal est toujours en vie\r\n}\r\n\r\n}\r\n\r\n\r\n",
  "sourcePath": "C:\\Users\\Guerraz Yohan\\Desktop\\blockchaine\\game\\contracts\\Token.sol",
  "compiler": {
    "name": "solc",
    "version": "0.8.14+commit.80d49f37.Emscripten.clang"
  },
  "schemaVersion": "3.4.7",
  "updatedAt": "2022-06-21T10:23:36.427Z",
  "devdoc": {
    "kind": "dev",
    "methods": {
      "approve(address,uint256)": {
        "details": "See {IERC721-approve}."
      },
      "balanceOf(address)": {
        "details": "See {IERC721-balanceOf}."
      },
      "create_jeton(uint8,uint8,uint256)": {
        "details": "Cette fonction permet la cration d'un nouveau jeton (un nouvel animal)"
      },
      "getApproved(uint256)": {
        "details": "See {IERC721-getApproved}."
      },
      "isApprovedForAll(address,address)": {
        "details": "See {IERC721-isApprovedForAll}."
      },
      "name()": {
        "details": "See {IERC721Metadata-name}."
      },
      "owner()": {
        "details": "Returns the address of the current owner."
      },
      "ownerOf(uint256)": {
        "details": "See {IERC721-ownerOf}."
      },
      "renounceOwnership()": {
        "details": "Leaves the contract without owner. It will not be possible to call `onlyOwner` functions anymore. Can only be called by the current owner. NOTE: Renouncing ownership will leave the contract without an owner, thereby removing any functionality that is only available to the owner."
      },
      "repas(uint256)": {
        "details": "Cette fonction permet de grer le repas de notre animal par exemple si l'animal meure on ne peut plus le nourrir"
      },
      "safeTransferFrom(address,address,uint256)": {
        "details": "See {IERC721-safeTransferFrom}."
      },
      "safeTransferFrom(address,address,uint256,bytes)": {
        "details": "See {IERC721-safeTransferFrom}."
      },
      "setApprovalForAll(address,bool)": {
        "details": "See {IERC721-setApprovalForAll}."
      },
      "supportsInterface(bytes4)": {
        "details": "See {IERC165-supportsInterface}."
      },
      "symbol()": {
        "details": "See {IERC721Metadata-symbol}."
      },
      "tokenURI(uint256)": {
        "details": "See {IERC721Metadata-tokenURI}."
      },
      "transferFrom(address,address,uint256)": {
        "details": "See {IERC721-transferFrom}."
      },
      "transferOwnership(address)": {
        "details": "Transfers ownership of the contract to a new account (`newOwner`). Can only be called by the current owner."
      }
    },
    "version": 1
  },
  "userdoc": {
    "kind": "user",
    "methods": {},
    "version": 1
  }
}